:020000040001F9
:10B00000F0330020D5B00100EFB00100F1B0010035
:10B010000000000000000000000000000000000030
:10B02000000000000000000000000000F3B001007C
:10B030000000000000000000F5B00100F7B00100C2
:10B040009DB30100F9B0010031B70100F9B0010072
:10B05000F9B0010000000000E1B10100F9B0010009
:10B06000F9B00100F9B00100F9B00100F9B0010038
:10B07000F9B00100F9B00100F9B00100F9B0010028
:10B08000F9B00100F1B30100F9B00100F9B001001D
:10B0900069B60100F9B0010071B60100F9B0010014
:10B0A000F9B00100F9B0010000000000000000004C
:10B0B0000000000000000000000000000000000090
:10B0C0000348854600F07AF80048004771CA01003D
:10B0D000F03300200321094802680A43026008484F
:10B0E00002680A4302600748804707480047FEE7B6
:10B0F000FEE7FEE7FEE7FEE7FEE70000240500406E
:10B100005405004091B60100C1B0010030B50B46B6
:10B11000014600202022012409E00D46D5409D4231
:10B1200005D31D469540491B2546954040191546B7
:10B13000521E002DF1DC30BD70B5002425460028DC
:10B1400001DA01244042002901DA01254942FFF7D2
:10B15000DDFFAC4200D04042002C00D0494270BD1F
:10B1600003460B439B0703D009E008C9121F08C020
:10B17000042AFAD203E00B780370401C491C521ECB
:10B18000F9D27047D2B201E00270401C491EFBD2D6
:10B1900070470022F6E710B513460A4604461946E2
:10B1A000FFF7F0FF204610BD03460A780270401CEE
:10B1B000491C002AF9D1184670470000064C0125A9
:10B1C000064E05E0E36807CC2B430C3C984710344F
:10B1D000B442F7D3FFF778FFD8DE0100F8DE0100B4
:10B1E000F0B50024FF268BB00136012527460694D2
:10B1F000304601F043FF002807D0544840682842F9
:10B2000003D0304601F032FF2C43361D6D007F1C09
:10B21000B6B2042FECD3FF257D35284601F02EFF72
:10B22000002809D0284601F021FF6807044306AA38
:10B230000121002001F006FF454D200714D0012711
:10B24000002627420CD04348B2001118086909694A
:10B25000C004C00E8903AA58890F002A00D0904765
:10B260007F00761C042EECD3002C6DDA00200890B1
:10B27000401E63E0281940300778B906890E009116
:10B2800000214156491C49D009A9009801F049FD07
:10B29000002843D0B8090190009801F0ABF9800074
:10B2A0002F580198002F02D0032802D00DE0032868
:10B2B00034D1009808ABC20841079446985C490F06
:10B2C00001228A40104362469854009805210907DC
:10B2D00080004018072109024018006806A9800371
:10B2E000800F0290009801F01CFD0028029802D007
:10B2F000022802D012E0032810D10198032808D1B7
:10B30000029802281ED00221009801F089FE761CC6
:10B31000F6B2002F02D001990098B847641C042CA3
:10B32000A8D3002E10D06A460121002001F08AFE29
:10B3300006990098884207D006900898002634465F
:10B34000099097E70321DFE70BB0F0BD00630040F1
:10B3500080240020006500408307FF22DB0E9A4016
:10B360008907090E994000280BDA0007000F0838FA
:10B37000830808489B001818C36993430B43C361B3
:10B380007047830804489B001B18186890430843C3
:10B390001860704700ED00E000E400E0F8B5FF2021
:10B3A000013001F0C6FC002401250E4E0E4F00288E
:10B3B00007D00E4804600120B0607D70002001F0CD
:10B3C00021F9FF20053001F0B4FC002808D007481F
:10B3D000001D04600220B060BD70012001F012F970
:10B3E000F8BD0000000300406C2400200001004074
:10B3F00010B506490020086048608860C8600349AD
:10B4000040390860486002F01DFB10BD401101404A
:10B4100010B503480078002801D100F093F910BD61
:10B42000742B0020F8B506460C48144600780D46EB
:10B43000002801D100F086F90023684600930370CC
:10B4400000F03AFD22462946304600F009F804464D
:10B450006846007800F04EFD2046F8BD742B0020B1
:10B4600070B50E4618214843134914464518E86A3A
:10B470001835002804D001280FD0022805D113E088
:10B48000284600F095F9A04201D2002411E022469E
:10B490003146284600F0B7FA0BE0284600F088F95C
:10B4A000A042F4D20446F2E73146284600F07BFA87
:10B4B0000446204670BD0000742B00200FB408B570
:10B4C00004A900916A46039900F004F801B008BC91
:10B4D00004B01847F7B598B007A80290402000259F
:10B4E0000495039018980C46059506902178641CE5
:10B4F000002977D0252907D002A800F035FA059851
:10B500000028F3DA1BB0F0BD012200210227134608
:10B510000826207823281BD02B2816D02D2802D0CF
:10B52000302806D101E0194300E03943641C002AA9
:10B53000EFD1002220780346303B0A2B0AD20A239F
:10B540005A431218303A641CF4E704200143EDE733
:10B550003143EBE70023C7B22E2F0AD1641C2078B9
:10B560000746303F0A2F04D20A277B431B18303B83
:10B57000F4E76C280DD068280BD0702852D00BDC73
:10B5800025285AD058282ED063280CD0642858D1AA
:10B5900010E02078641CECE7732832D0752817D0AF
:10B5A00078284ED11FE01A981A9A0068011D116080
:10B5B000017843E01A981A9F0068061D3E600068F3
:10B5C0000191009201460A2202A800F0FCF838E03E
:10B5D0001A981A9F0068061D3E600068009201914B
:10B5E0000A2209E02FE01A981A9F0068061D3E60A3
:10B5F0000068009201911022014602A800F048F96B
:10B600001FE01A981A9A0068011D116006683178C7
:10B61000761C002915D002A800F0A6F9059800288C
:10B62000F5DA0EE01A981A9A00680823011D1160D5
:10B630000168102200960195DFE7252102A800F09D
:10B6400093F9641C5BE70598002800DC5AE704982E
:10B65000002804D0024607A91898FFF7E3FE0499D2
:10B660000598401805904DE710B502F05DF910BD42
:10B6700010B506484068002805D08047002801D052
:10B6800000F066FB10BD01F0CDF810BD7020002069
:10B6900010B501F015F9002805D01F491D48486074
:10B6A000C8131E4988611E48018CC9B201290BD1FB
:10B6B000828C120708D1028D1206120F042A03D1C0
:10B6C000828D1206120F0AD0012921D1818C09071F
:10B6D0001ED1018D0906090F0A2904D007E0114A7D
:10B6E00001219160F5E7828D1206120F05D00D2918
:10B6F0000ED1808D0006000F0AD10B480168012988
:10B7000004D00A49016001680129FCD1C0214161CE
:10B7100010BD0000DFFF07C000050040006C0040C6
:10B72000C00F00F00006004000EC064075930000DA
:10B7300010B50249024802F020FA10BDC8240020CA
:10B740000020004010B5124C02202061606111A061
:10B75000A0611348E0610120400220620020A06245
:10B7600060620CA1A1642146E0621039E1641021FD
:10B770002165A0656065E0650AA1E01DFFF714FD85
:10B7800009A12046FFF710FD2020A07110BD000088
:10B79000742B00205465726D696E616C00000000AE
:10B7A0006429002052545400534547474552000035
:10B7B0000269C1688A4203D88068401A801800E094
:10B7C000501A401E7047FFB583B00E4670420D9F61
:10B7D0000C9C0090002900DB0846012502E0FFF7E1
:10B7E000ABFC6D1C05998842F9DA0698A84200D98D
:10B7F0000546002C04D0002E01DB780700D5641E1E
:10B80000B80702D50698002810D0F8070ED1002CF2
:10B810000CD0A5420AD22021641E039800F0A4F89F
:10B820000398C0680028F2DA07B0F0BD0398C0683A
:10B830000028F9DB002E02DA2D21009E02E07807B5
:10B8400007D52B21039800F08FF80398C0680028D3
:10B85000EADBB807800F022810D1069800280DD126
:10B86000002C0BD0A54209D23021641E039800F0B1
:10B870007BF80398C0680028F2DAD5E701970094B6
:10B880003146069B059A039800F002F8CCE70000C9
:10B89000FFB581B001261F4634460A9D029802E09A
:10B8A000FFF734FC641C03998842F9D2A74200D9FF
:10B8B0003C460B98C00718D1002D16D00B98800776
:10B8C00001D5002F02D0202000900CE03020FBE7B3
:10B8D0006D1E0099019800F047F80198C068002893
:10B8E0003DDB002D01D0AC42F2D30198C0680028A6
:10B8F00035DB012F01D97F1E06E031460298FFF7A4
:10B9000005FC0399884202D303984643F1E7154F9B
:10B9100031460298FFF7FAFB0146029A7143511A29
:10B920000291395C019800F01FF80198C068002866
:10B9300005DB30460399FFF7E9FB0600E8D10B98D9
:10B94000C0070CD0002D0AD0AC4208D220216D1EB9
:10B95000019800F009F80198C0680028F2DA05B0F3
:10B96000F0BD000078DE010010B504468068636811
:10B97000421C934205D323681954A260E068401C1E
:10B98000E060A2686068824209D121682069FFF7FF
:10B9900049FDA168884203D00020C043E06010BD8B
:10B9A0000020A06010BDF7B5064682B000200090D0
:10B9B000F46817463069A04201D9051B02E0B1685E
:10B9C000201A0D1AB0686D1E001BA84200D805464B
:10B9D000BD4200D33D4670682A4600190399FFF71F
:10B9E000BFFB00987F1B4019009003986419401911
:10B9F0000390B068A04200D10024F460002FD9D198
:10BA0000009805B0F0BDF7B5C668174604468068D3
:10BA1000851B6068BD4206D980190199FFF7A0FB1C
:10BA2000F019E060FEBD2A4680190199FFF798FBE6
:10BA300001987E1B411932466068FFF791FBE66072
:10BA4000FEBD30B47446641E2578641CAB4200D23F
:10BA50001D46635D5B00E31830BC184702E008C870
:10BA6000121F08C1002AFAD170477047002001E078
:10BA700001C1121F002AFBD170470000202804DA00
:10BA8000012181400348014201D00120704700207C
:10BA900070470000FC06FFBC10B5044601461A4A78
:10BAA000112001F027FA002801D000F051F90121FE
:10BAB000112001F0D3F9154A2146122001F01AFA9B
:10BAC000002801D000F044F90121122001F0C6F94C
:10BAD0000E4A2146132001F00DFA002801D000F093
:10BAE00037F90121132001F0B9F9084A2146142041
:10BAF00001F000FA040001D000F02AF9012114201D
:10BB000001F0ACF9204610BD39D4010089D4010000
:10BB1000F7B584B0064600251788158020300290BE
:10BB2000407B1446002806D03A462146059800F08E
:10BB300021FC050009D1B078002823D0059886465D
:10BB40002088001DB84202D90C2007B0F0BD68461D
:10BB500079DF0028F9D121880320724650542088CB
:10BB60001921401C80B22080115420887146401C4D
:10BB700080B2208041186846008802F092F821883F
:10BB800040182080F078002817D0218803230A4627
:10BB9000F356C91C0598B942D6D802218154218890
:10BBA0000122491C89B2218042542188491C89B252
:10BBB000218043542088401C20807068002817D0C2
:10BBC00021880023C3560A46C91C0598B942BBD830
:10BBD0000221815421880A22491C89B221804254C1
:10BBE0002188491C89B2218043542088401C208030
:10BBF000308900280AD0009430460197062202219D
:10BC00000830059B02F09AF805009ED1308A002882
:10BC10000AD0009430460197072203211030059B7B
:10BC200002F08CF8050090D1308B00280AD00094E7
:10BC300030460197152214211830059B02F07EF83A
:10BC4000050082D1306A002806D03B46224605997D
:10BC500000F040FD0500D8D1706A002806D03B46B0
:10BC60002246059900F0DAFF0500CED10298007B4C
:10BC7000002807D03B4622463046059901F010FDCA
:10BC80000500C2D13078002807D03B462246304616
:10BC9000059900F0F7FF0500B7D1284655E70000E9
:10BCA000174A0021535C002B01D0012203E0491CFC
:10BCB0000629F7D300221349012806D002280BD009
:10BCC000032810D0042818D112E04878002803D0A7
:10BCD000002A01D0012070478878002803D0002A6C
:10BCE00001D002207047C878002801D00320704797
:10BCF0000879002801D00420704700207047000018
:10BD0000092000206421002009A1012001F07EFA11
:10BD100001F0D0F901F0D4F90028FBD100BEBFF347
:10BD20004F8F0A490848C860BFF34F8F00BFFDE737
:10BD30004150505F4552524F523A4552524F523A3B
:10BD4000466174616C0D0A000400FA0500ED00E024
:10BD50000EB50021029000916A4601910148FFF75B
:10BD6000D3FF0EBD01400000094B5B68002B07D0DC
:10BD7000002A07D0002805D00068037C002B03D0E0
:10BD800008207047072070474174426100207047C7
:10BD90004C200020FFB507469007002581B01E46C5
:10BDA0001446002825D1002C23D001F0A9FB3046F1
:10BDB000114EF06030461030057045700299817068
:10BDC00044607560357001240C487570240504606A
:10BDD00003211420FFF7C0FA09480460094CA7604A
:10BDE00003211120FFF7B8FA6068B060002005B0A9
:10BDF000F0BD0720FBE700003C20002080E200E0CF
:10BE000000E100E000150140FEB51F4B5B68002B10
:10BE100030D000282ED0052901D20720FEBD43696D
:10BE2000002B27D0437C012B26D00027029104460B
:10BE30000025694616460D70684600F03DF801A8D9
:10BE400001F066FF002819D0012101700F494460FC
:10BE500049688160029907614661C16068460A4984
:10BE6000007948706846007800F044F801F09EFDC3
:10BE70002846FEBD0820FEBD0F46D7E768460425CC
:10BE8000007800F037F8F3E74C200020001501405F
:10BE900010B50849496800290AD0002808D041692E
:10BEA000002905D000210174022101F0A7FD10BD79
:10BEB000082010BD4C20002030B5EFF3108172B681
:10BEC000094A54680123002C04D00370002900D1D2
:10BED00062B630BD5360054B1D68054C25401560AA
:10BEE0001C6000220270F1E76020002080E100E089
:10BEF000FC06FFBC08494A68002A0CD000280AD179
:10BF0000EFF3108072B60A68044B1A6000224A6090
:10BF1000002800D162B670476020002000E100E0F8
:10BF200038B501F03BF8002801D0FFF711FF0B48AE
:10BF3000694600680090032048706846FFF7ACFD32
:10BF4000041E01D0FFF704FF05A10020FFF7B6FA99
:10BF5000200001D0FFF7FCFE38BD00004CDE0100E0
:10BF60000D0A48455245210D0A000000F0B50C4667
:10BF700093B01F216A461180072600279180002870
:10BF800009D0C17849070DD502A9FFF7C1FD0028E6
:10BF900009D102AD01E000251780002C0ED0E07819
:10BFA000002802D0304613B0F0BD01AA0AA92046ED
:10BFB000FFF7AEFD0028F6D10AAA02E0684600228B
:10BFC000878068468088C3B268460088C1B2284628
:10BFD00072DFE8E7FFB581B01E460A9F13460400F2
:10BFE00047D0002B45D0504D012028700020E8702C
:10BFF000202219464D48FFF7B3F800206F61C04377
:10C000002E612881284607211830FFF7C2F84748DB
:10C010003C212030FFF7BDF84448217820300170E2
:10C02000A1788170E178C170617841703F4A65699B
:10C0300023695563114613632031E368A268CB601E
:10C040008A603A49E369A269CB638A63616A00291D
:10C050001AD001463C310246483241628A60636A26
:10C060001B880B80616A436A898899800021436A32
:10C0700007E00E2005B0F0BD656AAD686D5C5554F3
:10C08000491C9D888D42F7D8A16A00291CD0274AF7
:10C09000943211460C398A608162A36A9B888B8036
:10C0A000A16A836A098819800021836A04E0A56A6D
:10C0B000AD686D5C5554491C9D888D42F7D82C2184
:10C0C0000A5D1A4940310A73216A002909D01649CC
:10C0D0000A310162226A52884A80216A026A09880A
:10C0E00011806168002900D04160104A0E4900208B
:10C0F000B3322031C3001B1A85009B180C68401C0A
:10C1000063510828F6DB094A0020EB320301850061
:10C110009B188C68401C63510828F7DB0348029980
:10C120002030FFF723FFA5E7F01F00206421002047
:10C1300010B50188134C102915D0112919D01B29CD
:10C1400010D1007A00280DD1E0780521401CFEF7BF
:10C15000DDFF084600F018F8002803D061690029C7
:10C1600000D0884710BD817D0129FBD180882081C6
:10C1700010BD00216171808821898842F8D1012099
:10C18000E8E70000F01F0020F1B53F4C88B02078B0
:10C1900000280AD00898E07006A800F037FB06983F
:10C1A0000125002804D065706AE0082009B0F0BDC0
:10C1B0003548002707211830FEF7EBFF334E707823
:10C1C000002802D0E078012807D0B07800280CD0F1
:10C1D000E078012801D0022807D12169002903D085
:10C1E00025710820884700E027710898FFF758FD5F
:10C1F000E0702169002909D0032801D0042805D165
:10C200003078002802D06079002811D0A771182159
:10C210006846FEF7BEFF684607700772E1781A4865
:10C220000B001830FFF70DFC052E080F191D20001C
:10C23000A57107208847EAE7A57001906846057058
:10C240004782078213E00221A170019068460570C1
:10C25000B18941823189018209E0684601F068FABA
:10C2600002E0684601F090FAE078002803D06846C2
:10C2700073DF00289AD12169002901D0A07888476E
:10C28000002093E7A770F6E7F01F0020642100204C
:10C2900070B5054601461C220E48FEF761FF0E4CA4
:10C2A000002626702968002906D00822201DFEF7E6
:10C2B00057FF201D7ADF02E00748001D7BDF0028C2
:10C2C00007D1401E60806670044A00210448FFF7D1
:10C2D0004BFD70BD3023002020200020ADDC01008C
:10C2E00038DE0100F8B5214C0146028800261E48C0
:10C2F000E589102A13D01E4F112A1FD0122A2BD0E5
:10C30000502A1AD1881DC988A94216D1418902290B
:10C3100013D10C3000F0D2F800280CD112E08A883A
:10C3200004464280104808220C301831FEF718FFEE
:10C330006670002D01D100F015FAF8BD0021C94347
:10C34000418046703868FFF7A3FD0028F5D0A16949
:10C350000029F2D08847F8BD034808220C30083184
:10C36000FEF7FEFEE7E7000020200020302300203B
:10C3700038DE01007CB5054608880C46093090423D
:10C3800001D90C207CBD684671DF0028FAD12188D4
:10C390000820685420881B21401C80B2208029542A
:10C3A000208800A9401C80B220804019062201315B
:10C3B000FEF7D6FE20886946801D80B2208009786D
:10C3C000002900D0012129542088401C2080002011
:10C3D0007CBD000010B50446FFF784FF21460548E8
:10C3E00000F03EF8204600F0A7FF2046FFF7A0FE31
:10C3F00010BD00004821002030B5184B0D46040048
:10C400000FCB85B003936B4607C324D0002D22D0F9
:10C410000020C043A0822868A0610020A0752146AA
:10C42000684663DF002814D12178684681740121B1
:10C430000182A21C04A90120A0DF002809D12946FD
:10C44000204601F092F8002803D12946204601F049
:10C4500048FB05B030BD0E20FBE700003CDE0100CC
:10C4600010B500281BD0002919D00A88102A17D02F
:10C47000112A17D0502A12D104468A1DC888238A4F
:10C480001231984202D15389022B0FD0A3889842CF
:10C4900005D1A369002B02D052892046984710BDD0
:10C4A000898801E00021C943818210BD084600F05F
:10C4B00005F8002800D00120A07510BD4178027851
:10C4C00008021043C007C00F70470000074AD36836
:10C4D0009168994201D8FF2901D309207047136858
:10C4E0005B5C0370491C0020916070475C23002056
:10C4F000054AD168FF2901D30920704713685854B1
:10C50000491C0020D16070475C230020F8B50D461F
:10C51000461C00206946087001246846FFF7CCFCE1
:10C52000134A10682860116850689368081A1D1A29
:10C53000701C6D1CA84212D9002D0ED00D480E4C57
:10C540000088246880051940800DA40289002043DA
:10C550008918C8601068401C1060002401E0881928
:10C56000106068460078FFF7C5FC2046F8BD000063
:10C570004C25002054DE01006C200020034803C835
:10C58000814201D101207047002070474C250020D6
:10C590000022D243830004490428CA5002D3081859
:10C5A000203002777047000080240020F0B500257D
:10C5B000ED43002A02D00023042601E004230826CC
:10C5C0000B4C04E09F00E7597F1C04D05B1CB34276
:10C5D000F8D32846F0BD26185DB2203635709E008F
:10C5E000A151002AF5D1E11820310877F1E70000C8
:10C5F00080240020024909182020085670470000B6
:10C600008024002070B5084C050009D01034216842
:10C61000002907D008682060496828468847F6E75F
:10C620000834F4E770BD00006C240020F8B52348FE
:10C63000416800293ED00E6821494C68876880789F
:10C64000E11B0D022D0AED1C002814D101201D4A0A
:10C65000000450601B4A403A50601B49400008608B
:10C660001A4908601A49012008602F2000F06AFB6F
:10C67000124901208870B54200D23546E8190002FF
:10C680000F4B000A403318600D4A5168001B091B0C
:10C690000902090A0002000AC91C814209D950682E
:10C6A00018602F2000F04EFB01200749400480391C
:10C6B0000860F8BD00F024FFF8BD00003C20002019
:10C6C000001501404013014080E200E000E100E07D
:10C6D00000100140F8B50646108814468446801DB7
:10C6E0000D46984201D90C20F8BD32880720062A51
:10C6F000FAD31927FF01184BBA4201D99A42F3D154
:10C7000071880629F0D3B94201D99942ECD19A42F5
:10C7100003D0994201D08A42E6D8052160462954C7
:10C7200020881221401C80B2208029542088401C7F
:10C7300080B220804119308801F0B3FA2188401876
:10C7400080B220804119708801F0ABFA218840182E
:10C7500020800020F8BD0000FFFF000010B5FFF7AB
:10C76000F7FA10BDF8B5164800F09CF8144D0026F5
:10C770000C3D144C002807D0616900291CD0012011
:10C780006A461070684616E02878002805D061696E
:10C79000002911D0684606700DE0687800280DD099
:10C7A000A168094800220068FFF72EFB002803D08B
:10C7B000A169002900D088472E70F8BD6168F0E7B4
:10C7C0002C2000203023002038DE010010B50E4957
:10C7D00000230A784C78A24212D0521CD2B20A70BE
:10C7E000022A00D10B700A78074B920018339A582E
:10C7F0000260886810180002000A8860012010BDDD
:10C800000360002010BD00003C200020002804D060
:10C810000349496E01600020704703207047000003
:10C82000E4240020F8B51E4C2078002836D0E068BB
:10C83000002600280CD00025607800282ED16846FC
:10C8400052DF052806D0002806D0FFF781FA0BE05A
:10C850000125F1E7012607E0009800F0C9FA2169F7
:10C86000002901D000988847002D13D16078002856
:10C8700014D1608869460880A06861DF052804D06B
:10C88000002804D0FFF764FA04E0012502E0E16823
:10C89000A0688847002ECFD0002DE5D0F8BD00005D
:10C8A00070200020418805480288914204D34088C6
:10C8B000814201D8012070470020704724200020C9
:10C8C0001048018CC9B2012917D1818C090714D1F4
:10C8D000018D09060A0F03D1828D1206120F0ED0A8
:10C8E000090F012903D1828D1206120F07D00329E7
:10C8F00003D1808D0006000F01D000207047012079
:10C9000070470000C00F00F0F0B5284C21461039E8
:10C9100048688B68227886469C46CF78667836E0F1
:10C92000182353436168521CC918A378D2B29342AA
:10C9300000D100220B78022B02D0032B27D123E059
:10C9400003464D68194603E0A94204D00B46C96965
:10C9500000291CD0F8E7002919D08B4208D1C06902
:10C96000002805D1124F0125BD600025AC460127E6
:10C970000D68C969D961002909D00B685B190B6082
:10C9800005E00174C06900E000210028F9D1964259
:10C99000C6D10649624610398A604860CF7070453A
:10C9A00001D00120F0BD0020F0BD00004C2000208F
:10C9B00000100140F8B52C4E044670680025009028
:10C9C00041E0002C02D02046E46920E026481823EC
:10C9D0001030017842684B43491CC9B2D21801702B
:10C9E0008378994200D105701178506801292CD1C3
:10C9F000017C002929D191684160D1688160116969
:10CA0000C16051698161F178002900D045604368B7
:10CA1000B268164F991A0902090AB94202D282680D
:10CA2000891806E0D11A09028268090A8A4202D9E5
:10CA3000511A016000E005604560012185600174C4
:10CA4000C56100F0BBFF002CBBD107481030017856
:10CA500040788142BAD171680098814201D00120AA
:10CA6000F8BD0020F8BD00003C200020FFFF7F0043
:10CA7000A8B058A10020FEF721FD0023584A052147
:10CA80001846FFF787F9002801D0FFF761F95548EC
:10CA900053490068059000234822483905A800F052
:10CAA00011FF002801D0FFF753F96A460121002049
:10CAB00000F0F0FE002801D0FFF74AF9684600F0C8
:10CAC00097FE002801D0FFF743F9474800F086FEA3
:10CAD000002801D0FFF73CF91120694608720C22AA
:10CAE00042A102A87CDF002801D0FFF731F9002421
:10CAF000009410216846019401803C214180FF216F
:10CB000084809131C1807ADF002801D0FFF720F9BD
:10CB10003A480090324869467830FFF76DFC0028AB
:10CB200001D0FFF715F93C2101A8FEF732FB0221E5
:10CB30006846017184710521C1713C2110A8FEF77E
:10CB400028FB012510A805822D48159020211FA83B
:10CB5000FEF71FFB18A8C57740202390B42024902F
:10CB6000284B1FAA10A9009401A8FFF733FA002848
:10CB700001D0FFF7EDF81C216846FEF70AFB0520FF
:10CB8000C00301900F200004029000940321684626
:10CB90000173C48104741C4805901C4806906846C3
:10CBA000FFF776FB002801D0FFF7D2F8FFF7B8F9BE
:10CBB0000320FFF7E9FA002801D0FFF7C9F814A114
:10CBC0000020FEF77BFC48DF0028FCD0FFF7C0F810
:10CBD000F9E700000D0A5374617274210D0A000018
:10CBE000D020002034DE0100D5C30100427261690B
:10CBF0006C6C655F426F797300000000D5D2010054
:10CC0000EC1F002025D30100E9D301005DC701001E
:10CC10000D0A48455245210D0A00000070B5144622
:10CC200082880E4605462088111D4118921C9942A3
:10CC300001D8FE2A01D90C2070BD521C3254208824
:10CC4000FF21401C80B2208031542088401C80B2DB
:10CC500020808119288801F024F82188401880B2AA
:10CC60002080AA88002A09D0A968002908D0801944
:10CC7000FEF776FA2088A98840182080002070BD31
:10CC8000072070BDF8B50F46017814460546012906
:10CC900002D16878002806D02088821C9A422DD8BC
:10CCA000012902D006E00720F8BD69784118891CE7
:10CCB000994223D8181A801E86B2684606802188B9
:10CCC000B81C081869467DDF0028EDD128780228B5
:10CCD00005D169460988B14201D809210AE0082135
:10CCE000012805D16878B04202D86A46108001E078
:10CCF0006846068068460088FE2801D90C20F8BDE9
:10CD00002288401CB8542088401C80B220803954AE
:10CD100020886946401C2080098840182080002017
:10CD2000F8BDC20843075B0F0120895C98400840AA
:10CD300070470121890740180068002800D00120B1
:10CD40007047000000280FD00849094A096800BF51
:10CD500000BF00BF00BF00BF00BF00BF00BF9142C7
:10CD600000D000BF401EF2D1704700008420002098
:10CD70000024F40070B50E4C00252078002801D066
:10CD8000852513E00021A16061602161E16009480F
:10CD900000680126304002D1032100F02FF800F096
:10CDA000BDFD002801D1044886612670284670BD6B
:10CDB0006C24002000E100E00005004038B50020B0
:10CDC000694608706846FFF777F8084C2078002815
:10CDD00001D1FFF7CFFFE068401CE0600120A070A8
:10CDE00068460078FFF786F838BD00006C24002004
:10CDF00010B5002801D1FFF705FC10BD8207D30E46
:10CE0000FF229A408907090E10B5994000280BDAD5
:10CE100003071B0F083B9C080C4BA400E318DC69BC
:10CE200094430C43DC6107E08408094BA400E41838
:10CE3000236893430B432360C106C90E0120884039
:10CE4000044908600449086010BD000000ED00E0DE
:10CE500000E400E080E200E000E100E0F3B581B032
:10CE6000054600F0D1FA1F4F0028284617D0FFF7DB
:10CE7000C1FBC0192030007F8009032802D001289F
:10CE80000BD005E018480069E840C007C00F04D087
:10CE90000321284600F0C4F8FEBD0221F9E700F0A6
:10CEA000BFFA0028F8D02846FFF7A4FB044680000C
:10CEB000C11D0E4AF9318018026989B20126324338
:10CEC0000261084600F0D2F802980028E4D0284613
:10CED000FFF790FB800038580028DDD00448A640BA
:10CEE0004660FEBD80240020000500500065004023
:10CEF00000630040FEB5044625480E460019202177
:10CF000041560027C8171346401C01D008273CE0B3
:10CF1000F27819462046FFF749FB0546401C33D0FE
:10CF2000B07800280BD005200007A10009180720C1
:10CF300000020918086802229043086007E00021F7
:10CF40007378204600910A46019100F055F8F07878
:10CF5000002810D00F48AA001018317802690E4B33
:10CF60001A400261E206D20C8907890B0A43016963
:10CF70000A43026109E00648327840192030017FF7
:10CF800092011143017700E004273846FEBD0000FE
:10CF90008024002000650040FFE0FCFF70B5144DC8
:10CFA0002879002801D0082070BD1149002040399F
:10CFB000421E0B182033401CC0B21A702028F8D330
:10CFC00000242046FFF7E4FA641CE4B2082CF8D3EE
:10CFD00003210620FFF712FFFF207D3000F046F806
:10CFE00001200449C007486001202871002070BD5D
:10CFF000C02400200063004070B552000A4399002D
:10D00000049D0A432902059E0A43310405240A436C
:10D01000240780000721001909024018026070BD32
:10D0200005221207800082180720000210180268EB
:10D0300003231B049A430260026809040A43026046
:10D040007047000038B5084B05241B680093240284
:10D050006B46411805E085005D592D192D69401C6E
:10D0600020C28142F7D838BD50DE01000249401885
:10D070000021016070470000006000400349401833
:10D080000068012800D000207047000000600040C8
:10D0900070B5074D04462878002802D0687884428D
:10D0A00004D0FEF7B5F9012028706C70002070BD27
:10D0B0006820002010B50120FFF7EAFF10BD000036
:10D0C000F0B595B0FFF75AFA002802D0002015B04D
:10D0D000F0BD4B48446886682146314089000918F4
:10D0E0000C94CD680BE02904A80D890D4018041993
:10D0F00020463040810042480C940818C568641CE2
:10D10000A807F0D000200890A807800F3D4B022808
:10D1100007D0AA0AA805000F84460EA9964600204B
:10D1200059E02046304081003548641C0818C0682A
:10D13000049486462804800D84463440301B8000C9
:10D14000AF0D001D874222D92D490C31002807D090
:10D150002B4AA400A21814460C34C2B2381A03E0B9
:10D160000C460021FAB20846C0B203900192029127
:10D170000094A8065C69400F634672460899A04770
:10D18000B84213D1FF1C0498B9080C1830E01C48B1
:10D19000A200101800210C30009002910197039119
:10D1A000A8065C69400F63467246E8E716498005A9
:10D1B0000D40000C05430C983040810010480818C1
:10D1C000C56017E027463740BA000D4F401CD719FD
:10D1D000FF68641C80C167466045F3D3A8060097CA
:10D1E0001D69400F0EAB72460899A847002801D070
:10D1F00003484460FFF7C2F90121484067E7000097
:10D200004C2500204C2900203F00FFFFF8B5104DB1
:10D210000E46074600206946AC68FFF777F90028FC
:10D2200015D00C483C21808888437907890E084333
:10D230000F21890188438105890DB00201430098BF
:10D240000246224092005219401CD1600090F8BD65
:10D250004C25002054DE0100F7B5154C82B00E4677
:10D26000074601206946A568FFF750F900281CD041
:10D2700010483C21008988437907890E08430F2113
:10D2800089018843402108438105890DB00201438B
:10D29000009802462A4092001219D160401C00906A
:10D2A0002840800000190499C16005B0F0BD00005D
:10D2B0004C25002054DE01004058002800D00120F9
:10D2C00070470322120280184068084000D00120F5
:10D2D0007047000070B50D48164600780D460028CE
:10D2E00012D0012810D100240CE0285D00F0FAF8DB
:10D2F000002801D0FEF72CFD2A5D05A10020FEF7D5
:10D30000DDF8641CB442F0D370BD0000E81F0020BB
:10D31000726563696576656420636861723A202589
:10D3200063200A0010B5002804D13CDF002801D09A
:10D33000FEF70EFD10BD000030B504460088294DF3
:10D3400089B03A282AD00DDC02282BD0102813D01F
:10D35000112813D0132814D100231A468521688878
:10D360007FDF18E0512821D052280FD0552808D14E
:10D37000A088132176DF0EE0A08801E00020C043E2
:10D38000688009B030BDFEF7E3FCFAE700231A46D7
:10D3900019466888A9DF0028F5D1F2E7A088132193
:10D3A00076DFF8E7A088002167DFF4E71022A11DEF
:10D3B00004A8FDF7D5FE6846007C0028E1D0694648
:10D3C000097E042903D0062901D00529D9D10228D4
:10D3D00000D0012069460870FF2083308880A08833
:10D3E000A8DFD8E7E81F002010B50078002807D193
:10D3F00004483B21408876DF002801D0FEF7A8FCD6
:10D4000010BD0000E81F00200449081820214156E3
:10D41000042901DB01207047002070478024002090
:10D420000449081820214156042901D201207047DF
:10D43000002070478024002010B50B4C03E02068CA
:10D440000078FFF755F8206800F03AF80028F6D089
:10D450006068FFF73BF8002805D1606803A10278F7
:10D460000020FEF72BF810BD342000200D0A747840
:10D470002043686172206174206F75747075743A0E
:10D480002025640D0A00000010B5024602A100200C
:10D49000FEF714F810BD00000D0A74782050696E74
:10D4A000204576656E743A2025640D0A0000000060
:10D4B000012252075110886B496B4143881870470D
:10D4C000074AD3689168994201D8FF2901D30920FE
:10D4D000704713685B5C0370491C002091607047C3
:10D4E0004C230020054AD168FF2901D30920704749
:10D4F00013685854491C0020D16070474C23002009
:10D5000070B501240B49600408600B494010886025
:10D51000094940398860094D6C602F20FFF712FCE3
:10D52000AC60074D00242F20AC60FFF70BFCAC7003
:10D5300070BD000080E100E0401301400010014098
:10D540003C20002030B5FF220523CD7D0024093288
:10D550001B02C318002D8450986905D04B7ECA6801
:10D56000D054487E401C487630BD70B50024054636
:10D57000601C90B00007000F08A9103008940870D4
:10D58000601C0007000F103048708878F926304082
:10D59000801C88701C2101A8FDF7FBFD69460879F5
:10D5A0001021084369460871029408A80494059460
:10D5B00007940690287808A9887103206946888412
:10D5C00011200094087048708878F7213040801C42
:10D5D0000840EF2108400126304369468870142135
:10D5E0000AA8FDF7D6FD09A80A9068460B9069467F
:10D5F0000E8614204C8688862B4668880C330AAA2F
:10D6000001A9A2DF10B070BD1FB501246B461C70CC
:10D610001972019206C8684690471FBD10B50446AE
:10D62000FEF72CFA00280CD0A007C00E002C0ADA56
:10D630002107090F08398908144A89008918C9691E
:10D6400006E0134810BDA108124A8900891809682C
:10D65000C1400806800F042811D200280FD00228EC
:10D660000DD00D494B68E206D20E01209040002BF0
:10D6700008D0620992008B5803438B5004E00448A1
:10D68000401C10BD05490860002010BD00ED00E001
:10D690000120000000E400E06020002000E100E044
:10D6A000FFB50746806A81B0144600283DD00025AA
:10D6B00038462030009033E00C20B96A68430E18D9
:10D6C000B088801CFE2802D90C2005B0F0BD22884D
:10D6D0000299401C885420881622401C80B2208069
:10D6E00002990A542088401C80B220800299411877
:10D6F000308800F0D6FA2188401880B22080B288A5
:10D70000002A0AD0B16800290FD0029BC018FDF78B
:10D7100027FD2088B188401820806D1C0098EDB24C
:10D72000007BA842C8D80020CFE70720CDE7000043
:10D7300070B504461248134D018A2182818A6182A4
:10D740000078002818D06879002815D100F066FB11
:10D75000002811D028462030E060022008492072BD
:10D7600004202031C870064800212030FEF7FEFB5F
:10D77000002804D1052000E00320A870002070BD1F
:10D7800064210020F01F002070B5044611480426D3
:10D79000018B2182818B618200780F4D002816D089
:10D7A0006879002813D100F039FB00280FD02846F3
:10D7B0002030E06002202072064800212030C67030
:10D7C000FEF7D4FB002804D10620A87000E0AE705C
:10D7D000002070BD64210020F01F0020002803D02D
:10D7E0000249C860002070470E207047702000205A
:10D7F0001CB50F4901910091694660DF0446009A0B
:10D80000019882420AD00B490220FFF725FDFFF75D
:10D810004FFE0099421A08A1022004E0002C04D017
:10D82000224612A10120FFF717FD20461CBD000073
:10D83000E81F002094DE01005344483A5741524EFD
:10D84000494E473A52414D2073697A652073686F9B
:10D85000756C642062652061646A75737465642008
:10D86000746F2030782578200D0A00005344483A20
:10D870004552524F523A73645F626C655F656E61E8
:10D88000626C653A206572726F7220307825780D6F
:10D890000A00000070B50E460546144614211046D5
:10D8A000FDF777FC01200021208021612173267281
:10D8B0006572002D00D0A072002070BD10B5FEF77B
:10D8C00023FA10BDF8B5002903D08C070025002CE1
:10D8D00001D00720F8BD0E4E0E4FB160728073600C
:10D8E00039680124214003D00A49254680310C6063
:10D8F000094910DF002803D0002DEBD03C60F8BDB3
:10D900003470FFF75BFA1620FFF788FEF8BD0000C1
:10D910007020002000E100E0BDD80100014800783F
:10D920007047000070200020FEB51F4C0025A7683E
:10D93000606802906846FEF749FF0190FEF7E4FF39
:10D9400006460198002822D000230098616817E05D
:10D950000E680A46864202D9301A086012E0801B1F
:10D96000F31800261660D668D169B446002E07D099
:10D97000FE183602360A566066469660D561154630
:10D980000029E5D128466160FFF714F806E0284633
:10D99000FFF710F8002801D1002E02D00298FEF700
:10D9A00045FE0020E070FEBD3C2000200120024921
:10D9B000000508607047000000E200E010B50E4B63
:10D9C0005968002906D002680C68A24204D8A21A3D
:10D9D0000A60C161586010BD0B4604E00B46C9697E
:10D9E000121B002904D00C689442F7D3A41A0C60CF
:10D9F0000260C161D86110BD3C2000207CB50D469D
:10DA00000646002469460C706846FEF755FA01A8E0
:10DA100000F07EF900280DD0057046606846084980
:10DA20000079487068460078FEF764FAFFF7BEFF99
:10DA300020467CBD684604240078FEF75BFAF7E7D1
:10DA40004C200020F8B51D4D6C68002C34D01C48CB
:10DA500000274068A968401A0602360A2068B042CA
:10DA600018D8361AC7192246107CE46900280FD04E
:10DA700000201074EB68002B07D09169506998471B
:10DA8000002805D0FEF764F902E0516990698847E3
:10DA9000002CE3D129786878814206D1401CC0B2BD
:10DAA0006870022801D10020687004490006800DCA
:10DAB00018310F50FFF77AFFF8BD00003C2000201E
:10DAC00000150140FF221D32002383508B8A8A6893
:10DAD000D25C8B8A5B1C8B82052109024018C261D3
:10DAE000704770B58EB005461C216846FDF751FBA6
:10DAF000694608780C21084369460870002401949F
:10DB00000394049405940694287808A98870022048
:10DB100069460884601C0007000F103007940877DE
:10DB200011204877887FF9210840F721801C0840A0
:10DB3000EF2108400126304369468877142109A85F
:10DB4000FDF727FB08A8099007A80A9069468E856B
:10DB50001420CC85088668882B1D09AAA2DF0EB088
:10DB600070BD1FB500226B461A7019728168019151
:10DB7000827506C8684690471FBDF0B50C46012166
:10DB800085B005464902FFF79CFB032109026F1887
:10DB90000026002826D0FF2125312846FFF78CFBE0
:10DBA00000281FD0FF2025302E5081208000B86033
:10DBB000A07E002801D10120686002216846017022
:10DBC0000920C0012918086808600390E17D6846B3
:10DBD0000172E0680190E675267606CC6846083C3E
:10DBE00090472DE004212846FFF76BFB002827D043
:10DBF000FF2109312846FFF75FFB002820D021468E
:10DC00002846FFF79FFCE07D617E884218D1207E88
:10DC1000002807D0617EE268E0752069E060267622
:10DC200066760AE0A07E002801D10120686081208C
:10DC30008000B860E675617EE2682046FFF7E4FC8C
:10DC4000FF271D3739462846FFF736FB00280FD03F
:10DC5000A08AA17D884204D221462846FFF732FFE0
:10DC600006E0EE51A17D002902D02046FFF779FFA2
:10DC7000FF27453739462846FFF71EFB00280ED000
:10DC8000EE51A07E002801D001202860E07D002810
:10DC900005D0E675617EE2682046FFF7B5FC05B069
:10DCA000F0BD0870000A48700220704738B5154969
:10DCB000154A488890420FD04A78144C521CD2B270
:10DCC0004A70237B934208D3091D75DF002803D0D7
:10DCD000A169002900D0884738BD00254D70217CFE
:10DCE000002907D03B2176DF002803D0A169002955
:10DCF00000D0884761690029EED0684605708847E2
:10DD000038BD000020200020FFFF0000302300204D
:10DD100010B509494B788C785A1CD2B2944200D184
:10DD200000220C78944201D1002010BD0270486896
:10DD300018214B43C01810BD4C200020FFB583B004
:10DD400016460C9D0D9C1F460222009501940398D7
:10DD500000F00CF8002807D13B4610223146009510
:10DD60000194039800F002F807B0F0BDFFB583B04E
:10DD7000074600200C9C8646268805463AE07868CF
:10DD8000A90042181188684681805188C18000220C
:10DD9000694601A865DF002839D1684601780598F1
:10DDA000814226D17046002801D0002200E00222E4
:10DDB0002088891842180D998A4227D8714600296F
:10DDC0000AD1401C80B22080069A04991154208800
:10DDD000401C208001208646218806980A18694642
:10DDE00001A865DF002812D169462088097840180B
:10DDF00020806D1C3888A842C1DC704600280AD0FB
:10DE00002088801B401E80B2FF2802D90C2007B05A
:10DE1000F0BD069988550020F9E700000448017913
:10DE2000002902D1007B002800D0012070470000AB
:10DE30001020002001000007102300209ECADC24CF
:10DE40000EE5A9E093F3A3B50000406E01000001C8
:10DE50000000005029000000010000000100000047
:10DE600001000000010000000100000001000000AE
:10DE70000100000002000000303132333435363703
:10DE800038394142434445464F766572666C6F7738
:10DE90000D0A00005344483A5741524E494E473A02
:10DEA00073645F626C655F656E61626C653A205297
:10DEB000414D2073746172742073686F756C6420B7
:10DEC00062652061646A757374656420746F2030C4
:10DED0007825780D0A000000F8DE0100E81F002018
:10DEE000A00000005CBA010098DF0100882000203B
:10DEF000681300006CBA01000000FFFF010002007F
:10DF00000000000000000000000000000000000011
:10DF10000000000000000000000000000000000001
:10DF2000D022002000000000F022002000000000AD
:10DF300000000000000000000000000000000000E1
:10DF400000000000000000000000000000000000D1
:10DF500000000000000000000000000000000000C1
:10DF600000000000000000000000000000000000B1
:10DF700000000000000000000000000088DE01003A
:10DF80000000000000000000000000000000000091
:08DF9000000000000024F40071
:040000050001B0C185
:00000001FF
